:020000040800F2
:1000000000500020A13A000871120008791200087F
:1000100081120008891200089112000800000000F7
:10002000000000000000000000000000991200081D
:10003000A512000800000000B1120008BD1200085F
:10004000E93A0008E93A0008E93A0008E93A000804
:10005000E93A0008E93A0008E93A0008E93A0008F4
:10006000E93A0008E93A0008E93A0008C91200082C
:10007000E93A0008E93A0008E93A0008E93A0008D4
:10008000E93A0008E93A0008E93A0008E93A0008C4
:10009000E93A0008E93A0008E93A0008E93A0008B4
:1000A000E93A0008DD120008E93A0008E93A0008D8
:1000B000F1120008E93A000805130008E93A0008BF
:1000C000E93A0008E93A0008E93A0008E93A000884
:1000D000E93A0008E93A0008191300082D1300084E
:1000E000E93A0008E93A0008E93A0008000000008F
:1000F0000000000000000000000000000000000000
:0C01000000000000000000005FF808F1A3
:10010C0010B5054C237833B9044B13B10448AFF345
:10011C0000800123237010BD80000020000000002F
:10012C00E48F000808B5034B1BB103490348AFF338
:10013C00008008BD0000000084000020E48F00084F
:10014C0010F8012B11F8013B012A28BF9A42F7D075
:10015C00D01A7047034613F8012B002AFBD1181A4A
:10016C000138704780F0004002E000BF81F0004190
:10017C0042001FBF5FEA410392EA030F7FEA226C41
:10018C007FEA236C6AD04FEA1262D2EB1363C1BFD1
:10019C00D218414048404140B8BF5B42192B88BF40
:1001AC00704710F0004F40F4000020F07F4018BF63
:1001BC00404211F0004F41F4000121F07F4118BF83
:1001CC00494292EA030F3FD0A2F1010241FA03FC2B
:1001DC0010EB0C00C3F1200301FA03F100F0004313
:1001EC0002D5494260EB4000B0F5000F13D3B0F1DB
:1001FC00807F06D340084FEA310102F10102FE2A4A
:10020C0051D2B1F1004F40EBC25008BF20F00100B9
:10021C0040EA03007047490040EB0000013A28BF58
:10022C00B0F5000FEDD2B0FA80FCACF1080CB2EBDB
:10023C000C0200FA0CF0AABF00EBC2505242184359
:10024C00BCBFD0401843704792F0000F81F40001FE
:10025C0006BF80F400000132013BB5E74FEA4103D1
:10026C007FEA226C18BF7FEA236C21D092EA030F3D
:10027C0004D092F0000F08BF0846704790EA010FB7
:10028C001CBF0020704712F07F4F04D1400028BFE4
:10029C0040F00040704712F100723CBF00F50000C6
:1002AC00704700F0004343F0FE4040F400007047FC
:1002BC007FEA226216BF08467FEA236301464202A8
:1002CC0006BF5FEA412390EA010F40F480007047BB
:1002DC004FF0000304E000BF10F0004348BF404261
:1002EC005FEA000C08BF704743F0964301464FF09D
:1002FC0000001CE050EA010208BF70474FF00003F9
:10030C000AE000BF50EA010208BF704711F0004339
:10031C0002D5404261EB41015FEA010C02BF844609
:10032C000146002043F0B64308BFA3F18053A3F568
:10033C000003BCFA8CF2083AA3EBC25310DB01FAAF
:10034C0002FC634400FA02FCC2F12002BCF1004F33
:10035C0020FA02F243EB020008BF20F001007047C4
:10036C0002F1200201FA02FCC2F1200250EA4C0018
:10037C0021FA02F243EB020008BF20EADC7070475E
:10038C004FF0FF0C1CEAD0521EBF1CEAD15392EA6C
:10039C000C0F93EA0C0F6FD01A4480EA010C400248
:1003AC0018BF5FEA41211ED04FF0006343EA5010A2
:1003BC0043EA5111A0FB01310CF00040B1F5000FE4
:1003CC003EBF490041EAD3715B0040EA010062F193
:1003DC007F02FD2A1DD8B3F1004F40EBC25008BF7D
:1003EC0020F00100704790F0000F0CF0004C08BF9B
:1003FC0049024CEA502040EA51207F3AC2BFD2F168
:10040C00FF0340EAC250704740F400004FF0000375
:10041C00013A5DDC12F1190FDCBF00F000407047AF
:10042C00C2F10002410021FA02F1C2F1200200FAED
:10043C0002FC5FEA310040F1000053EA4C0308BFB4
:10044C0020EADC70704792F0000F00F0004C02BF05
:10045C00400010F4000F013AF9D040EA0C0093F080
:10046C00000F01F0004C02BF490011F4000F013BDA
:10047C00F9D041EA0C018FE70CEAD15392EA0C0F48
:10048C0018BF93EA0C0F0AD030F0004C18BF31F0B3
:10049C00004CD8D180EA010000F00040704790F089
:1004AC00000F17BF90F0004F084691F0000F91F02D
:1004BC00004F14D092EA0C0F01D142020FD193EAF3
:1004CC000C0F03D14B0218BF084608D180EA01007B
:1004DC0000F0004040F0FE4040F40000704740F057
:1004EC00FE4040F4400070474FF0FF0C1CEAD05225
:1004FC001EBF1CEAD15392EA0C0F93EA0C0F69D081
:10050C00A2EB030280EA010C49024FEA402037D0EB
:10051C004FF0805343EA111143EA10130CF00040E2
:10052C008B4238BF5B0042F17D024FF4000C8B42D2
:10053C0024BF5B1A40EA0C00B3EB510F24BFA3EBB2
:10054C00510340EA5C00B3EB910F24BFA3EB910382
:10055C0040EA9C00B3EBD10F24BFA3EBD10340EADC
:10056C00DC001B0118BF5FEA1C1CE0D1FD2A3FF622
:10057C0050AF8B4240EBC25008BF20F001007047D7
:10058C000CF0004C4CEA50207F32C2BFD2F1FF037A
:10059C0040EAC250704740F400004FF00003013AAB
:1005AC0037E792F0000F00F0004C02BF400010F44F
:1005BC00000F013AF9D040EA0C0093F0000F01F063
:1005CC00004C02BF490011F4000F013BF9D041EA85
:1005DC000C0195E70CEAD15392EA0C0F08D14202B8
:1005EC007FF47DAF93EA0C0F7FF470AF084676E78B
:1005FC0093EA0C0F04D14B023FF44CAF08466EE764
:10060C0030F0004C18BF31F0004CCAD130F0004231
:10061C007FF45CAF31F000437FF43CAF5FE700BF89
:10062C004FF0FF3C06E000BF4FF0010C02E000BFB2
:10063C004FF0010C4DF804CD4FEA40024FEA410354
:10064C007FEA226C18BF7FEA236C11D001B052EA0A
:10065C00530C18BF90EA010F58BFB2EB030088BFD0
:10066C00C81738BF6FEAE17018BF40F0010070473F
:10067C007FEA226C02D15FEA402C05D17FEA236C21
:10068C00E4D15FEA412CE1D05DF8040B704700BF68
:10069C00844608466146FFE70FB5FFF7C9FF0028FF
:1006AC0048BF10F1000F0FBD4DF808EDFFF7F4FF38
:1006BC000CBF012000205DF808FB00BF4DF808EDD1
:1006CC00FFF7EAFF34BF012000205DF808FB00BFF4
:1006DC004DF808EDFFF7E0FF94BF012000205DF816
:1006EC0008FB00BF4DF808EDFFF7D2FF94BF0120C7
:1006FC0000205DF808FB00BF4DF808EDFFF7C8FFC0
:10070C0034BF012000205DF808FB00BF42000ED270
:10071C00B2F1FE4F0BD34FF09E03B3EB126209D430
:10072C004FEA002343F0004323FA02F070474FF0E6
:10073C000000704712F1610F01D1420202D14FF05B
:10074C00FF3070474FF00000704700BF53B94AB9F3
:10075C00002908BF00281CBF4FF0FF314FF0FF30BD
:10076C0000F08CB9ADF1080C6DE904CE00F006F880
:10077C00DDF804E0DDE9022304B070472DE9F04711
:10078C00089D8E4604468846002B4AD18A4217465D
:10079C0062D9B2FA82F64EB1C6F1200301FA06F81C
:1007AC0020FA03F3B74043EA0808B4404FEA174E67
:1007BC00B8FBFEF11FFA87FC0EFB118801FB0CF253
:1007CC00230C43EA08439A4209D9FB1801F1FF3084
:1007DC0080F0EB809A4240F2E88002393B449A1A4E
:1007EC00B2FBFEF00EFB102200FB0CFCA3B243EAA2
:1007FC0002439C4509D9FB1800F1FF3280F0D780E9
:10080C009C4540F2D4803B44023840EA0140002130
:10081C00A3EB0C031DB10022F340C5E90032BDE887
:10082C00F0878B4205D90DB1C5E9000100210846BE
:10083C00F5E7B3FA83F1002946D1734502D382421E
:10084C0000F20881841A6EEB030201209046002D01
:10085C00E5D0C5E90048E2E7002A00F09180B2FA41
:10086C0082F6002E40F0A5808A1A0121030C4FEA73
:10087C00174E80B2BCB2B2FBFEFC0EFB1C2243EA4C
:10088C00024304FB0CF29A4207D9FB180CF1FF3817
:10089C0002D29A4200F2E380C4469B1AB3FBFEF2EA
:1008AC000EFB123302FB04F440EA03439C4207D9CB
:1008BC00FB1802F1FF3002D29C4200F2CD800246BE
:1008CC001B1B42EA0C40A5E7C1F120068B4022FA23
:1008DC0006F71F432EFA06FA4FEA1749BAFBF9F846
:1008EC000EFA01FE20FA06F309FB18AA1FFA87FC80
:1008FC0043EA0E0300FA01FE08FB0CF01C0C44EA60
:10090C000A44A04202FA01F20AD93C1908F1FF3A52
:10091C0080F09E80A04240F29B80A8F102083C44EB
:10092C00241A98B2B4FBF9F309FB134403FB0CFC37
:10093C0040EA0444A44509D93C1903F1FF3080F086
:10094C008580A44540F28280023B3C4443EA084047
:10095C00A4EB0C04A0FB028C64454346E14664D333
:10096C0061D05DB1BEEB030264EB090404FA06F638
:10097C0022FA01F31E43CC40C5E9006400214EE786
:10098C00B1FBF2FC010C41EA0E4180B240EA01429B
:10099C003B46B1FBF7F138463C46B846BE462026EE
:1009AC00A2EB080241EA0C4165E7014617E7104645
:1009BC002BE7C6F120012EFA01FCB7400EFA06FE19
:1009CC0020FA01F141EA0E014FEA174EBCFBFEF88A
:1009DC00BCB20EFB18CC08FB04F90A0C42EA0C4220
:1009EC00B04091454FEA104380B23ED9BA1808F195
:1009FC00FF3C01D291451FD8A2EB0902B2FBFEF9D4
:100A0C0009FB04F80EFB192A8AB242EA0A42424553
:100A1C0029D2BA1809F1FF31C2D24245C0D2A9F18C
:100A2C0002013A44BCE7C6459BD2B8EB02036CEB1F
:100A3C00070C0138E14694E7A7EB09094A44B2FBDD
:100A4C00FEF9A8F1020C09FB04F8DBE703467DE78D
:100A5C00D04665E70846FAE63B44023A30E7ACF18B
:100A6C00020C3B4419E749469AE7A2EB0902B2FB98
:100A7C00FEF9C44609FB04F8C4E700BF704700BF89
:100A8C0080B584B000AF3B1D00221A605A609A609A
:100A9C00184B194A1A60174B00229A60154B012209
:100AAC001A73144B00221A75124B4FF46022DA6140
:100ABC00104B00225A600F4B01221A610D4803F0B3
:100ACC0065F80346002B01D000F016FB00237B6079
:100ADC000123BB600723FB603B1D1946054803F04F
:100AEC0027FA0346002B01D000F006FB00BF10379D
:100AFC00BD4680BD9C0000200024014080B588B01C
:100B0C0000AF786007F1100300221A605A609A60F7
:100B1C00DA607B681B68284A934249D1274B9B6952
:100B2C00264A43F400739361244B9B6903F40073CE
:100B3C00FB60FB68214B9B69204A43F004039361E3
:100B4C001E4B9B6903F00403BB60BB6801233B6134
:100B5C0003237B6107F110031946194803F064FF66
:100B6C00184B194A1A60174B00225A60154B002279
:100B7C009A60144B8022DA60124B4FF480721A6127
:100B8C00104B4FF480625A610E4B20229A610D4B30
:100B9C000022DA610B4803F0A5FC0346002B01D0C0
:100BAC0000F0AAFA7B68074A1A62064A7B6853620D
:100BBC0000BF2037BD4680BD00240140001002401C
:100BCC0000080140CC0000200800024080B582B033
:100BDC0000AF0C4B5B690B4A43F001035361094BAB
:100BEC005B6903F001037B607B68002207210B200B
:100BFC0003F04DFC0B2003F066FC00BF0837BD462C
:100C0C0080BD00BF0010024080B588B000AF07F176
:100C1C00100300221A605A609A60DA605F4B9B697D
:100C2C005E4A43F0100393615C4B9B6903F0100325
:100C3C00FB60FB68594B9B69584A43F00403936172
:100C4C00564B9B6903F00403BB60BB68534B9B6919
:100C5C00524A43F008039361504B9B6903F008031D
:100C6C007B607B684D4B9B694C4A43F0200393613E
:100C7C004A4B9B6903F020033B603B68002242F225
:100C8C002001474804F06BF800223021454804F05D
:100C9C0066F800224FF23D01434804F060F84FF42F
:100CAC0000533B6101237B610123BB610323FB6187
:100CBC0007F1100319463A4803F0B6FE4FF480438F
:100CCC003B6100237B610023BB6107F110031946D4
:100CDC00334803F0A9FE30233B6101237B610023E1
:100CEC00BB610323FB6107F1100319462D4803F088
:100CFC009BFE20233B6101237B610023BB6102230C
:100D0C00FB6107F110031946254803F08DFE3D23C6
:100D1C003B6101237B610023BB610223FB6107F173
:100D2C0010031946204803F07FFE02233B61002389
:100D3C007B610123BB6107F1100319461A4803F0CC
:100D4C0073FE4FF470433B6101237B610023BB6155
:100D5C000323FB6107F110031946134803F064FEEB
:100D6C004FF470733B6100237B610123BB6107F17E
:100D7C00100319460A4803F057FE04233B61002375
:100D8C007B610023BB6107F110031946074803F090
:100D9C004BFE00BF2037BD4680BD00BF0010024097
:100DAC000010014000080140000C014000140140FB
:100DBC0080B500AF124B134A1A60114B124A5A609D
:100DCC000F4B00229A600E4B0022DA600C4B4FF452
:100DDC0080421A610A4B00225A61094B00229A6127
:100DEC00074B0022DA61064B00221A62044803F01A
:100DFC00CFFF0346002B01D000F07EF900BF80BD71
:100E0C001001002000540040A086010080B588B07D
:100E1C0000AF786007F1100300221A605A609A60E4
:100E2C00DA607B681B68154A934223D1144B9B698B
:100E3C00134A43F008039361114B9B6903F00803B9
:100E4C00FB60FB68C0233B6112237B610323FB61C6
:100E5C0007F1100319460B4803F0E6FD084BDB695C
:100E6C00074A43F40013D361054BDB6903F4001309
:100E7C00BB60BB6800BF2037BD4680BD005400403E
:100E8C0000100240000C014080B582B000AF7860C9
:100E9C007B681A68074B1B689A4202D1064801F01E
:100EAC0081FE01220449034806F039FD00BF0837D2
:100EBC00BD4680BDD00200208C05002080B582B0DC
:100ECC0002AF02F00DFE00F0A1F8FFF79DFEFFF758
:100EDC007DFEFFF7D5FDFFF76BFF00F0F7FB00F091
:100EEC001FFC00F047FC00F0B1FA00F0FBFA00F038
:100EFC005DFA00220821364803F031FF0022102150
:100F0C00334803F02CFF00222021314803F027FF47
:100F1C00002210212F4803F022FF002220212D480F
:100F2C0003F01DFF00220421294803F018FF41F2B1
:100F3C00883000F019FD00F075FD002000F080FDF8
:100F4C00002000F0B5FD2449244802F062FB244B3C
:100F5C000093244B4FF400522349204802F092FB9B
:100F6C004FF0000200211D4802F068FC01F02EFF3A
:100F7C001E4801F011F8112001F044F804231C4A1A
:100F8C0015491C4801F047FC40221B491B4802F044
:100F9C00D5FE01221A491B4806F0C1FC4FF4FA7029
:100FAC0002F0D0FD01F084FB01F0C5FB164A0121D3
:100FBC00012001F003FC4FF4FA7002F0C3FD01F0C4
:100FCC00BAFB01F0A1FE01F035FF00BFF9E700BF4D
:100FDC00000C014000080140F8010020980A002094
:100FEC009A9919409A99193F00100140100100205C
:100FFC000014014074040020640300209C000020B5
:10100C008C050020D0020020FC8F000880B594B025
:10101C0000AF07F1280328220021184607F02AFB0D
:10102C0007F1140300221A605A609A60DA601A61A0
:10103C003B1D00221A605A609A60DA600223BB6280
:10104C000123BB631023FB6302237B640023BB647B
:10105C004FF42013FB6407F12803184604F0CCFE70
:10106C000346002B01D000F047F80F237B610223CD
:10107C00BB610023FB614FF480633B6200237B6206
:10108C0007F114030121184605F038F90346002B2B
:10109C0001D000F031F802237B604FF48043FB60F9
:1010AC003B1D184605F0E8FA0346002B01D000F072
:1010BC0023F800BF5037BD4680BD000080B582B01C
:1010CC0000AF78607B681B68094A934201D102F03B
:1010DC001DFD7B681A68074B1B681B689A4202D17E
:1010EC00044802F001FC00BF0837BD4680BD00BFBC
:1010FC0000080040980A002080B400AF72B600BF10
:10110C0000BFFDE780B485B000AF154B9B69144A56
:10111C0043F001039361124B9B6903F00103BB6025
:10112C00BB680F4BDB690E4A43F08053D3610C4B09
:10113C00DB6903F080537B607B680A4B5B68FB6068
:10114C00FB6823F0E063FB60FB6843F00073FB601B
:10115C00044AFB68536000BF1437BD4680BC70471F
:10116C00001002400000014080B58EB000AF7860E6
:10117C000023FB620023BB62002387F83330344B1F
:10118C00DB69334A43F00403D361314BDB6903F071
:10119C000403FB60FB6807F1100207F1140311460E
:1011AC00184605F01BFA3B6AFB62FB6A002B03D165
:1011BC0005F0ECF9786304E005F0E8F903465B0010
:1011CC007B637B6B234AA2FB03239B0C013BBB621F
:1011DC00214B224A1A60204B40F2E732DA601E4A59
:1011EC00BB6A53601C4B00221A611B4B00229A6095
:1011FC00194B00229A61184805F0F4FA034687F857
:10120C00333097F83330002B1BD1134805F0AAFB71
:10121C00034687F8333097F83330002B11D11E205A
:10122C0003F051F97B680F2B08D8002279681E2037
:10123C0003F02DF90A4A7B68136002E0012387F85A
:10124C00333097F8333018463837BD4680BD00BF71
:10125C000010024083DE1B436401002000080040A4
:10126C002800002080B400AF00BFFDE780B400AFC1
:10127C0000BFFDE780B400AF00BFFDE780B400AF56
:10128C0000BFFDE780B400AF00BFFDE780B400AF46
:10129C0000BFBD4680BC704780B400AF00BFBD46E8
:1012AC0080BC704780B400AF00BFBD4680BC7047A7
:1012BC0080B400AF00BFBD4680BC704780B500AFA6
:1012CC00024803F07DFA00BF80BD00BFCC000020B7
:1012DC0080B500AF024805F089FC00BF80BD00BF9F
:1012EC00B001002080B500AF024805F07FFC00BFC4
:1012FC0080BD00BFF801002080B500AF024805F0AA
:10130C0075FC00BF80BD00BF6401002080B500AF3C
:10131C00024806F029FB00BF80BD00BFD0020020B0
:10132C0080B500AF024806F01FFB00BF80BD00BFB8
:10133C001803002080B586B000AF7860144A154BB6
:10134C00D31A7B617B693B61134B1B68002B02D169
:10135C00114B124A1A60104B1A687B6813443A6995
:10136C009A4207D207F0B2F903460C221A604FF0EA
:10137C00FF3309E0084B1B68FB60074B1A687B685E
:10138C001344054A1360FB6818461837BD4680BDE8
:10139C000050002000040000AC010020900C002044
:1013AC0080B400AF00BFBD4680BC704780B586B02E
:1013BC0000AF07F1080300221A605A609A60DA60E5
:1013CC003B4600221A605A601E4B1F4A1A601D4B86
:1013DC002F225A601B4B00229A601A4B0922DA60AA
:1013EC00184B00221A61174B00225A61154B002230
:1013FC009A61144805F0F6F90346002B01D0FFF76B
:10140C007BFE4FF48053BB6007F1080319460D486F
:10141C0005F09EFD0346002B01D0FFF76DFE202347
:10142C003B6000237B603B461946064806F02CF9CE
:10143C000346002B01D0FFF75FFE00BF1837BD46F7
:10144C0080BD00BFB0010020002C014080B586B0EB
:10145C0000AF07F1080300221A605A609A60DA6044
:10146C003B4600221A605A601D4B4FF080421A60B6
:10147C001B4B2F225A601A4B00229A60184B0922E0
:10148C00DA60174B00221A61154B00229A6114483E
:10149C0005F0A8F90346002B01D0FFF72DFE4FF401
:1014AC008053BB6007F1080319460D4805F050FD49
:1014BC000346002B01D0FFF71FFE20233B600023C7
:1014CC007B603B461946064806F0DEF80346002BC7
:1014DC0001D0FFF711FE00BF1837BD4680BD00BF1D
:1014EC00F801002080B58AB000AF07F1200300227C
:1014FC001A605A603B1D00221A605A609A60DA60CA
:10150C001A615A619A61274B274A1A60254B2F2280
:10151C005A60244B00229A60224B4FF6FF72DA601D
:10152C00204B00221A611F4B00229A611D4805F0C6
:10153C006BFA0346002B01D0FFF7DEFD00233B6264
:10154C0000237B6207F120031946164806F09CF82D
:10155C000346002B01D0FFF7CFFD60237B600023F7
:10156C00BB600023FB6000237B613B1D00221946FE
:10157C000C4805F02BFC0346002B01D0FFF7BCFDFB
:10158C003B1D04221946074805F020FC0346002B9E
:10159C0001D0FFF7B1FD034800F066F800BF283713
:1015AC00BD4680BD400200200004004080B584B0E0
:1015BC0000AF78607B681B681A4A934214D11A4BAF
:1015CC009B69194A43F400639361174B9B6903F4BD
:1015DC000063FB60FB6800220021192002F057FF1A
:1015EC00192002F070FF18E07B681B68B3F1804F84
:1015FC0013D10D4BDB690C4A43F00103D3610A4B49
:10160C00DB6903F00103BB60BB68002200211C20D6
:10161C0002F03DFF1C2002F056FF00BF1037BD4604
:10162C0080BD00BF002C01400010024080B485B08A
:10163C0000AF78607B681B68094A93420BD1094B59
:10164C00DB69084A43F00203D361064BDB6903F004
:10165C000203FB60FB6800BF1437BD4680BC7047BB
:10166C00000400400010024080B588B000AF7860E4
:10167C0007F1100300221A605A609A60DA607B68E6
:10168C001B680F4A934217D10E4B9B690D4A43F0CE
:10169C00040393610B4B9B6903F00403FB60FB6831
:1016AC00C0233B6102237B610223FB6107F1100322
:1016BC001946054803F0B8F900BF2037BD4680BD78
:1016CC0000040040001002400008014080B500AF4B
:1016DC00114B124A1A60104B4FF4E1325A600E4B08
:1016EC0000229A600C4B0022DA600B4B00221A612C
:1016FC00094B0C225A61084B00229A61064B0022BE
:10170C00DA61054806F030F80346002B01D0FFF7EC
:10171C00F3FC00BF80BD00BF8802002000380140F0
:10172C0080B500AF114B124A1A60104B4FF4E132E6
:10173C005A600E4B00229A600C4B0022DA600B4B65
:10174C0000221A61094B0C225A61084B00229A6143
:10175C00064B0022DA61054806F006F80346002B1A
:10176C0001D0FFF7C9FC00BF80BD00BFD002002034
:10177C000044004080B500AF114B124A1A60104B68
:10178C004FF4E1325A600E4B00229A600C4B00224F
:10179C00DA600B4B00221A61094B0C225A61084B80
:1017AC0000229A61064B0022DA61054805F0DCFF45
:1017BC000346002B01D0FFF79FFC00BF80BD00BF8C
:1017CC00180300200048004080B58CB000AF786052
:1017DC0007F1200300221A605A609A60DA607B6875
:1017EC001B685B4A934232D15A4B9B69594A43F46A
:1017FC0080439361574B9B6903F48043FB61FB6906
:10180C00544B9B69534A43F004039361514B9B69BE
:10181C0003F00403BB61BB694FF400733B6202230A
:10182C007B620323FB6207F1200319464A4803F04D
:10183C00FBF84FF480633B6200237B620023BB62A6
:10184C0007F120031946444803F0EEF87CE07B686E
:10185C001B68424A934238D13E4BDB693D4A43F404
:10186C000033D3613B4BDB6903F400337B617B6951
:10187C00384B9B69374A43F004039361354B9B69A2
:10188C0003F004033B613B6904233B6202237B624C
:10189C000323FB6207F1200319462F4803F0C4F819
:1018AC0008233B6200237B620023BB6207F1200309
:1018BC001946294803F0B8F800220121262002F02D
:1018CC00E6FD262002F0FFFD3EE07B681B68244A03
:1018DC00934239D11F4BDB691E4A43F48023D361F9
:1018EC001C4BDB6903F48023FB60FB68194B9B6981
:1018FC00184A43F008039361164B9B6903F00803E5
:10190C00BB60BB684FF480633B6202237B620323A2
:10191C00FB6207F120031946124803F085F84FF4D7
:10192C0000633B6200237B620023BB6207F1200350
:10193C0019460C4803F078F800220321272002F006
:10194C00A6FD272002F0BFFD00BF3037BD4680BD8D
:10195C0000380140001002400008014000440040E3
:10196C0000480040000C014080B586B000AF7860A4
:10197C0004F00CFEF860294B5B68FB685B00BB60F5
:10198C0000237B61BA687B68B2FBF3F3013B3B61DC
:10199C003B69B3F5803F0DD33B691B0C01337B6175
:1019AC007B6901337A6802FB03F3BA68B2FBF3F389
:1019BC00013B3B611A4B1B681A6A41F2111313402D
:1019CC00002B0FD1164B1B681A6A40F2444313408C
:1019DC00002B07D1124B1B681A68114B1B6822F0A5
:1019EC0001021A600E4B1B687A699A620C4B1B68D9
:1019FC003A69DA620A4A3B69D360094B1B680022D8
:101A0C005A62074B1B681A68054B1B6842F00102AF
:101A1C001A6000BF1837BD4680BD00BF00100240E1
:101A2C004002002080B500AF0021044805F03CF8CE
:101A3C000421024805F038F800BF80BD40020020A8
:101A4C002DE9B04384B000AF0146F971F9796429EE
:101A5C0001D96421F97115490968C96AF960F968F5
:101A6C000131002088468146F97900200A46034658
:101A7C0002FB09F008FB03F10144A8FB02454B19DA
:101A8C001D464FF064024FF0000320462946FEF736
:101A9C005DFE02460B461346BB60044B1B68BA68DE
:101AAC005A6300BF1037BD46BDE8B083400200202A
:101ABC002DE9B04384B000AF0146F971F97964297E
:101ACC0001D96421F97115490968C96AF960F96885
:101ADC000131002088468146F97900200A460346E8
:101AEC0002FB09F008FB03F10144A8FB02454B196A
:101AFC001D464FF064024FF0000320462946FEF7C6
:101B0C0025FE02460B461346BB60044B1B68BA68A5
:101B1C009A6300BF1037BD46BDE8B0834002002079
:101B2C000FB480B582B000AF00237B6007F11403C3
:101B3C003B603B683A694FF48071104806F08CFDAD
:101B4C000E48FEF707FB7860642301220C490D4810
:101B5C0005F05AFE7B689AB264230849094805F0DF
:101B6C0053FE642301220849064805F04DFE00BFD0
:101B7C000837BD46BDE8804004B07047840400209F
:101B8C000C900008D00200201090000890B589B08D
:101B9C0004AF0446084611461A462346FB8003460A
:101BAC00BB800B46FB701346BB703B6A002B02D00C
:101BBC007B6A002B01D100231DE0F888BB88FA78E2
:101BCC00B97802910192009303460D4A796A386AFA
:101BDC0006F0BCFCF860FB68002B03DBFB687A6A40
:101BEC009A4207D87B6A002B02D03B6A00221A70FB
:101BFC00002300E0FB6818461437BD4690BD00BFBB
:101C0C001490000890B5BBB002AFAC4B93F8E9331D
:101C1C00002B00F0FC80AA49AA4801F015F8AA494B
:101C2C00A74806F03CFD0346002B03D0A74B01222E
:101C3C001A7009E0A649A24806F031FD0346002BB4
:101C4C0002D0A24B01221A70A2499D4806F027FD32
:101C5C000346002B05D0012208219F4803F07FF892
:101C6C000BE09E49964806F01AFD0346002B04D063
:101C7C0000220821984803F072F89949904806F020
:101C8C000EFD0346002B05D001221021924803F0D3
:101C9C0066F80BE093498A4806F001FD0346002BD9
:101CAC0004D0002210218C4803F059F88E49844846
:101CBC0006F0F5FC0346002B05D0012220218648B6
:101CCC0003F04DF80BE089497D4806F0E8FC03462B
:101CDC00002B04D0002220217F4803F040F88449D7
:101CEC00774806F0DCFC0346002B05D001221021BE
:101CFC00804803F034F80BE07F49714806F0CFFCC4
:101D0C000346002B04D0002210217A4803F027F858
:101D1C007A496B4806F0C3FC0346002B05D0012220
:101D2C002021744803F01BF80BE07549644806F059
:101D3C00B6FC0346002B04D0002220216D4803F092
:101D4C000EF870495E4806F0AAFC0346002B2AD018
:101D5C003D215B4806F096FCC7F8D000D7F8D03090
:101D6C00002B51D0D7F8D0300133184606F066FB63
:101D7C00C7F8CC00D7F8CC30002B45DBD7F8CC30EB
:101D8C00FF2B41DCD7F8CC30DAB25F4B1A705E4BCC
:101D9C001B781846FFF754FE5B4B1B7819465B48C3
:101DAC0000F052FF30E05A49454806F078FC0346F3
:101DBC00002B29D03D21424806F064FCC7F8D8001E
:101DCC00D7F8D830002B1FD0D7F8D83001331846AD
:101DDC0006F034FBC7F8D400D7F8D430002B13DB53
:101DEC00D7F8D430FF2B0FDCD7F8D430DAB2494B0C
:101DFC001A70484B1B781846FFF75AFE454B1B7858
:101E0C001946454800F020FF2C4800F0FEFE01F07A
:101E1C008FFE0246414B1B68D31AB3F52F7F26D990
:101E2C0001F086FE03463D4A13603D4800F06AF916
:101E3C003C4B1B689CB23A4B1B681846FEF766FC81
:101E4C00034699B2384B5A7B374B187BC823019306
:101E5C003B1D009303462046FFF798FE3B1D194699
:101E6C00324800F0F1FE3B1D1846FFF759FE01F019
:101E7C005FFE02462E4B1B68D31A40F2A4629342BB
:101E8C0007D901F055FE0346294A1360264800F095
:101E9C0011FD244B1B6840F6C412934269D9254BA3
:101EAC001B78002B65D1234B01221A702249234841
:101EBC0001F0B2FD0023C7F8DC3056E08C050020A1
:101ECC008D05002040900008509000087D0A0020ED
:101EDC005890000860900008000C01406C900008BD
:101EEC007890000884900008909000089890000862
:101EFC00A490000800080140B0900008BC900008B5
:101F0C00C8900008D490000864040020E0900008F9
:101F1C00F890000865040020049100086C0400206F
:101F2C006804002064030020740400201891000849
:101F3C0070040020600300202091000804000020A1
:101F4C0001220421114802F00AFF642001F0FAFD7D
:101F5C00002204210D4802F002FF642001F0F2FD82
:101F6C00D7F8DC300133C7F8DC30D7F8DC30092B7C
:101F7C00E6DD074B1B68B3F57A7F02D2054B0022D6
:101F8C001A7000231846E437BD4690BD000C014082
:101F9C00640300206003002080B582B000AF78603D
:101FAC000A4A7B68136000F013F80346002B07D134
:101FBC00452000F059F80346002B01D1002300E026
:101FCC00012318460837BD4680BD00BF840500209C
:101FDC0080B584B002AF0723FB71094B1868FA1D5A
:101FEC000A2300930123462103F016F80346002B25
:101FFC0001D1002300E0012318460837BD4680BDFF
:10200C008405002080B584B002AF0346FB71FB79D8
:10201C001B09DBB2002B06D1FB795B09DBB2002B71
:10202C0001D1012318E0FB7903F00C03002B01D044
:10203C00012311E0FA790A4B1A700A4B1868FA1D41
:10204C000A2300930123462102F0E6FF0346002BEE
:10205C0001D1002300E0012318460837BD4680BD9E
:10206C00880500208405002080B586B002AF0346A9
:10207C00FB71FB791E2B02D9FB79FF2B01D10123BC
:10208C0037E01E4AFB791370FB795B09DBB243F036
:10209C004003DBB23B7397F9073003F01F035BB2CD
:1020AC0043F060035BB2DBB27B73154B186807F12E
:1020BC000C020A2300930123462102F0ADFF0346D4
:1020CC00FB73FB7B002B01D0012312E00C4B186837
:1020DC0007F10C035A1C0A2300930123462102F03A
:1020EC009BFF0346FB73FB7B002B01D1002300E01D
:1020FC00012318461037BD4680BD00BF890500205E
:10210C008405002080B586B002AF7860244B186837
:10211C0007F108020A2300930223462103F07AF800
:10212C000346002B36D13B7A1B027A7A13431846AE
:10213C00FEF7D2F80346FB601A4B1B78452B10D0E8
:10214C00184B1B781846FEF7C3F803461946164879
:10215C00FEF7CAF903461946F868FEF711F903466B
:10216C00FB60124B1B78212B03D0104B1B78112BCF
:10217C0006D14FF08041F868FEF7B6F90346FB60D4
:10218C000B49F868FEF7B0F903461A467B681A60EB
:10219C00002300E0012318461037BD4680BD00BF68
:1021AC00840500208905002000008A428805002053
:1021BC009A99993F80B582B000AF0023FB71012240
:1021CC004FF40041B84802F0CAFD01224FF480419F
:1021DC00B54802F0C4FD01224FF40051B24802F0A0
:1021EC00BEFD01224FF48051AF4802F0B8FD05202E
:1021FC0001F0A8FC00224FF40041AB4802F0AFFD07
:10220C00052001F09FFC4FF40071A84802F090FDEE
:10221C000346002B0CD100BF4FF40071A34802F011
:10222C0087FD0346002BF7D00123FB71FB796FE18F
:10223C004FF480719D4802F07BFD0346002B0CD1BE
:10224C0000BF4FF48071994802F072FD0346002BD9
:10225C00F7D00523FB71FB795AE18021934802F0FA
:10226C0067FD0346002B0BD100BF80218F4802F085
:10227C005FFD0346002BF8D00923FB71FB7947E186
:10228C0040218A4802F054FD0346002B0BD100BFBD
:10229C004021864802F04CFD0346002BF8D00D235C
:1022AC00FB71FB7934E101224FF400417E4802F0CE
:1022BC0056FD052001F046FC00224FF480417A487F
:1022CC0002F04DFD052001F03DFC4FF40071774804
:1022DC0002F02EFD0346002B0CD100BF4FF4007111
:1022EC00724802F025FD0346002BF7D00223FB7148
:1022FC00FB790DE14FF480716C4802F019FD034637
:10230C00002B0CD100BF4FF48071684802F010FD17
:10231C000346002BF7D00623FB71FB79F8E08021F4
:10232C00624802F005FD0346002B0BD100BF802153
:10233C005E4802F0FDFC0346002BF8D00A23FB712B
:10234C00FB79E5E04021594802F0F2FC0346002BF2
:10235C000BD100BF4021554802F0EAFC0346002B8C
:10236C00F8D00E23FB71FB79D2E001224FF48041AF
:10237C004D4802F0F4FC052001F0E4FB00224FF480
:10238C000051494802F0EBFC052001F0DBFB4FF457
:10239C000071464802F0CCFC0346002B0CD100BF68
:1023AC004FF40071414802F0C3FC0346002BF7D0F8
:1023BC000323FB71FB79ABE04FF480713B4802F0D7
:1023CC00B7FC0346002B0CD100BF4FF4807137488B
:1023DC0002F0AEFC0346002BF7D00723FB71FB7910
:1023EC0096E08021314802F0A3FC0346002B0BD170
:1023FC0000BF80212D4802F09BFC0346002BF8D037
:10240C000B23FB71FB7983E04021284802F090FC00
:10241C000346002B0BD100BF4021244802F088FC5E
:10242C000346002BF8D00F23FB71FB7970E00122DF
:10243C004FF400511C4802F092FC052001F082FB85
:10244C0000224FF48051184802F089FC052001F05D
:10245C0079FB4FF40071154802F06AFC0346002B1F
:10246C000CD100BF4FF40071104802F061FC034620
:10247C00002BF7D00423FB71FB7949E04FF48071FA
:10248C000A4802F055FC0346002B11D100BF4FF453
:10249C008071064802F04CFC0346002BF7D0082351
:1024AC00FB71FB7934E000BF000C014000100140CF
:1024BC008021194802F03CFC0346002B0BD100BFD5
:1024CC008021154802F034FC0346002BF8D00C2375
:1024DC00FB71FB791CE040210F4802F029FC0346FC
:1024EC00002B0BD100BF40210B4802F021FC03460E
:1024FC00002BF8D01023FB71FB7909E001224FF47B
:10250C008051064802F02BFC052001F01BFB002338
:10251C0018460837BD4680BD00100140000C014034
:10252C0080B582B000AF0023FB71FFF743FE03467A
:10253C00BB71BB79013B0F2B52D801A252F823F08F
:10254C008D25000893250008992500089F25000873
:10255C00A5250008AB250008B1250008B725000803
:10256C00BD250008C3250008C9250008CF25000893
:10257C00D5250008DB250008E1250008E725000823
:10258C003123FB712DE03223FB712AE03323FB71E5
:10259C0027E04123FB7124E03423FB7121E0352338
:1025AC00FB711EE03623FB711BE04223FB7118E02C
:1025BC003723FB7115E03823FB7112E03923FB71D3
:1025CC000FE04323FB710CE02A23FB7109E030235D
:1025DC00FB7106E02323FB7103E04423FB7100E055
:1025EC0000BFFB7918460837BD4680BD80B586B064
:1025FC0002AF0346FB71FB7923F00F03FB73FB79EE
:10260C001B01BB73FB7B43F00C03DBB23B72FB7B0C
:10261C0043F00803DBB27B72BB7B43F00C03DBB2F1
:10262C00BB72BB7B43F00803DBB2FB7207F1080201
:10263C006423009304234E21044802F0EDFC012096
:10264C0001F080FA00BF1037BD4680BD100100209C
:10265C0080B586B002AF0346FB71FB7923F00F0304
:10266C00FB73FB791B01BB73FB7B43F00D03DBB2EC
:10267C003B72FB7B43F00903DBB27B72BB7B43F009
:10268C000D03DBB2BB72BB7B43F00903DBB2FB7205
:10269C0007F108026423009304234E21034802F03F
:1026AC00BBFC00BF1037BD4680BD00BF1001002031
:1026BC0080B500AF3320FFF799FF3220FFF796FF6C
:1026CC00322001F03FFA2820FFF790FF322001F072
:1026DC0039FA0120FFF78AFF462001F033FA062071
:1026EC00FFF784FF322001F02DFA0C20FFF77EFF5C
:1026FC00322001F027FA0220FFF778FF322001F098
:10270C0021FA8020FFF772FF00BF80BD80B582B038
:10271C0000AF786006E07B685A1C7A601B7818461C
:10272C00FFF796FF7B681B78002BF4D100BF00BF2E
:10273C000837BD4680BD80B500AF0120FFF756FFBE
:10274C0000BF80BD80B584B000AF786039607B6815
:10275C00012B08D17B68DAB23B68DBB21344DBB2E5
:10276C007F33FB7322E07B68022B09D13B68DBB221
:10277C004033DBB25BB263F07F035BB2FB7315E0FB
:10278C007B68032B09D13B68DBB21433DBB25BB241
:10279C0063F07F035BB2FB7308E03B68DBB254333E
:1027AC00DBB25BB263F07F035BB2FB73FB7B18465F
:1027BC00FFF71CFF00BF1037BD4680BD80B582B04F
:1027CC0000AF03463A60FB710B46BB71FA79BB79DB
:1027DC00013B19461046FFF7B5FF3868FFF796FF27
:1027EC0000BF0837BD4680BD80B582B000AF034640
:1027FC00FB710B46BB7113467B71FB79BA791146A1
:10280C001846FFF79FFF7B791846FFF721FF00BFA3
:10281C000837BD4680BD80B485B000AFF860B960A4
:10282C007A607B80FB68BA689A60FB687A681A6089
:10283C00FB687A889A8000BF1437BD4680BC70470D
:10284C0080B586B000AF78600B46FB7007F10803CB
:10285C0000221A605A609A60DA60FB78012B11D161
:10286C007B689B88BB600123FB6000233B610323D7
:10287C007B617B681B6807F108021146184602F061
:10288C00D3F813E0FB78002B10D17B689B88BB60DE
:10289C000023FB6000233B6103237B617B681B6887
:1028AC0007F108021146184602F0BEF800BF1837AF
:1028BC00BD4680BD80B594B000AF78600023FB8628
:1028CC000023BB860023A7F84E30002387F84D3039
:1028DC00002387F84C30002387F84B30002387F80F
:1028EC00333001217868FFF7ABFF7B6818687B6891
:1028FC009B880022194602F032FA122001F022F9CC
:10290C0072B600BF7B689B68184603F0BBFF0021C2
:10291C007868FFF795FF7B689B681B6800225A62FA
:10292C000BE07B689B681B685B6A9BB2B3F5FA7F14
:10293C0003D962B600BF002330E17B681A687B685C
:10294C009B881946104602F0F3F90346012BE8D098
:10295C007B689B681B6800225A620BE07B689B6853
:10296C001B685B6A9BB2B3F5FA7F03D962B600BFF2
:10297C00002313E17B681A687B689B881946104614
:10298C0002F0D6F90346002BE8D07B689B681B68E5
:10299C005B6AFB867B689B681B6800225A620BE0B3
:1029AC007B689B681B685B6A9BB2B3F5FA7F03D9A3
:1029BC0062B600BF0023F1E07B681A687B689B88D5
:1029CC001946104602F0B4F90346012BE8D07B6897
:1029DC009B681B685B6ABB86FB8E4A2B0CD8FB8EF4
:1029EC00552B09D9BB8E4A2B06D8BB8E552B03D938
:1029FC0062B600BF0023D1E000237B645DE07B68FE
:102A0C009B681B6800225A620BE07B689B681B6802
:102A1C005B6A9BB2B3F5FA7F03D962B600BF0023A1
:102A2C00BCE07B681A687B689B881946104602F0EC
:102A3C007FF90346002BE8D07B689B681B6800225B
:102A4C005A620BE07B689B681B685B6A9BB2B3F5B0
:102A5C00FA7F03D962B600BF00239FE07B681A6837
:102A6C007B689B881946104602F062F90346012BDD
:102A7C00E8D07B689B681B685B6AFB86FB8E142B1B
:102A8C0006D9FB8E1D2B03D80023A7F84E3008E087
:102A9C00FB8E3C2B05D9FB8E4F2B02D80123A7F8BC
:102AAC004E30B7F84E30D9B207F108027B6C1344A4
:102ABC000A461A707B6C01337B647B6C272B9EDD82
:102ACC007B689B68184603F027FF62B600BF0023A3
:102ADC003B6411E007F108023B6C13441A7897F839
:102AEC004D30134487F84D3097F84D305B0087F824
:102AFC004D303B6C01333B643B6C072BEADD102300
:102B0C00FB6311E007F10802FB6B13441A7897F88A
:102B1C004C30134487F84C3097F84C305B0087F8F6
:102B2C004C30FB6B0133FB63FB6B172BEADD202373
:102B3C00BB6311E007F10802BB6B13441A7897F8DA
:102B4C004B30134487F84B3097F84B305B0087F8C9
:102B5C004B30BB6B0133BB63BB6B272BEADD97F8A8
:102B6C004B305B0887F84B3097F84D305B0887F893
:102B7C004D3097F84C305B0887F84C3097F84D2067
:102B8C0097F84C30134487F833307B6897F84C2017
:102B9C001A737B6897F84D205A73012318465037E7
:102BAC00BD4680BD80B483B000AF78607B681B7875
:102BBC00232B07D17B68002283F8EC237B6801224E
:102BCC0083F8E9237B6893F8EC33002B10D07B68F7
:102BDC00B3F8EA3319467B681A787B680B445A7051
:102BEC007B68B3F8EA3301339AB27B68A3F8EA2323
:102BFC007B681B78402B03D17B68012283F8EC2384
:102C0C0000BF0C37BD4680BC704780B582B000AFAA
:102C1C0078607B6800221A707B68002283F8E923B5
:102C2C007B68002283F8EC237B6801334FF47A72C3
:102C3C000021184605F01EFD7B680022A3F8EA234C
:102C4C0000BF0837BD4680BD0FB480B582B000AF61
:102C5C0000237B6007F114033B603B683A694FF437
:102C6C0080710A4805F0F8FC0848FDF773FA7860A3
:102C7C007B689AB264230549054804F0C5FD00BF82
:102C8C000837BD46BDE8804004B070477C09002081
:102C9C001803002080B582B000AF184B00221A60D8
:102CAC00174B00221A7000237B60164B1B78002BED
:102CBC001ED1FEF7A7FF124B00221A70FFF730FC53
:102CCC0003461A460E4B1A700D4B1B78002B02D084
:102CDC000B4B1B780DE07B6842F20F72934203DCC6
:102CEC007B6801337B60E0E7054B31221A7000E012
:102CFC0000BF18460837BD4680BD00BF800A0020C3
:102D0C007E0A00207D0A002080B500AFFFF713FD7E
:102D1C001C4B00221A701C4A01210120FFF74EFDAA
:102D2C001A4A01210220FFF749FDFFF7B3FF154BAB
:102D3C001B782A2B1FD0164B1B78012B1DD0144B44
:102D4C001B78022B12D1FFF7F6FC124A012101204D
:102D5C00FFF734FD104A01210220FFF72FFD40F24E
:102D6C00DC5000F0EFFEFFF7E6FCD4E70B4B1B78D2
:102D7C00002B04D1CFE700BF02E000BF00E000BF92
:102D8C0000BF80BD7E0A00203491000844910008E9
:102D9C007D0A002054910008609100087C0A0020F4
:102DAC0080B500AF00F01EFAFFF7C5FC054A012103
:102DBC000120FFF703FD044A01210220FFF7FEFC6E
:102DCC0000BF80BD709100087891000880B500AFFD
:102DDC004FF000020021024800F030FD00BF80BD22
:102DEC00980A002080B500AF034A0021034800F088
:102DFC0025FD00BF80BD00BF0000B442980A002032
:102E0C0080B483B000AF00237B6007E0084A7B6886
:102E1C00134400221A707B6801337B607B68132B90
:102E2C00F4DD00BF00BF0C37BD4680BC704700BF4F
:102E3C00840A002080B584B000AF0023FB7100230E
:102E4C00FB730123BB60A94B00221A70A84B1B78A3
:102E5C00012B03D1A64B00221A7072E1FFF7D0FFB1
:102E6C00E8E0FFF768FCA34A01210120FFF7A6FC6C
:102E7C000023BB60BB680A2B10DDBB68013B9E4A7C
:102E8C0082FB03129210DB17D31ADBB23033DBB2A6
:102E9C001A460F210120FFF7A7FC04E020220F2186
:102EAC000120FFF7A1FCBB685A1E934B83FB021356
:102EBC009910D317C91A0B469B000B445B00D11A0F
:102ECC00CBB23033DBB21A4610210120FFF78CFC59
:102EDC00BB680F2B02DCFFF7DDFE0DE0FFF7DAFE1F
:102EEC00824B1B78442B07D0804B1B78412B03D093
:102EFC00022000F027FEF1E77C4B1B78442B36D0E8
:102F0C007A4B1B78412B18D1BB68013B7B4AD35CB5
:102F1C00002B12D0BB68002B02DDBB68013BBB60F1
:102F2C00764ABB68134400221A70BB68DBB22022BD
:102F3C0019460220FFF758FC18E06C4B1B78412B0C
:102F4C0098D06A4B1B78002B94D0684B19786B4A3D
:102F5C00BB6813440A461A70BB68DBB22A221946B6
:102F6C000220FFF741FCBB680133BB6082E700BF66
:102F7C00C82000F0E7FDFFF7DEFB614A01210120CC
:102F8C00FFF71CFC4FF4967000F0DCFD5D495B48CC
:102F9C00FDF7D6F80346002B3FD0FFF7CCFB5A4A7F
:102FAC0001210120FFF70AFC584A01210220FFF7FA
:102FBC0005FCFB7B3133DBB21A460B210220FFF7F9
:102FCC0013FC4FF47A7000F0BDFDFFF7B4FBFB7BF4
:102FDC00012B09D84E4A01210120FFF7EFFB4D4A86
:102FEC0001210220FFF7EAFBFB7B022B09D14A4AA5
:102FFC0001210120FFF7E2FB484A01210220FFF7E3
:10300C00DDFB4FF47A7000F09DFDFB7B0133FB730D
:10301C000023BB600023FB710CE0052000F092FD47
:10302C00FFF789FB3E4A04210120FFF7C7FB092368
:10303C00FB7303E0FB7B022B7FF613AF52E0FFF731
:10304C007AFB384A01210120FFF7B8FB4FF47A7064
:10305C0000F078FDFFF76FFB334A05210120FFF7E5
:10306C00ADFB324A04210220FFF7A8FBFFF712FE4A
:10307C001F4B1B78012B14D1FFF75DFB2C4A012150
:10308C000120FFF79BFB2B4A01210220FFF796FB47
:10309C000923FB734FF47A7000F054FDFFF74BFBE0
:1030AC0020E0134B1B78022BE0D1FFF744FB224AA4
:1030BC0001210120FFF782FB204A01210220FFF7AA
:1030CC007DFB40F2DC5000F03DFDFFF734FB164A6F
:1030DC0005210120FFF772FB144A04210220FFF79F
:1030EC006DFBC3E7FB7B092BA9D167E07E0A0020AF
:1030FC007D0A00208891000867666666840A0020B5
:10310C009491000818000020A8910008B8910008BC
:10311C00C4910008D4910008E0910008F0910008D7
:10312C00009200080C9200081C92000824920008DF
:10313C003092000838920008549100086091000801
:10314C0000BFFFF7F8FA214A01210120FFF736FBF7
:10315C00FFF748FEFFF7EFFA1D4A01210120FFF7A8
:10316C002DFB1C4A01210220FFF728FBFFF792FDE3
:10317C00194B1B78012B07D1174B00221A70FFF744
:10318C00DAFA164B31221A70144B1B78312B0ED1F4
:10319C00124B00221A700023FB73FFF7CCFA104A73
:1031AC0001210120FFF70AFBFFF710FE06E00B4B95
:1031BC001B78322BDAD1FFF7F3FDD7E7FB7B092B1A
:1031CC00BED000BF00BF1037BD4680BD4492000882
:1031DC0070910008789100087D0A00207E0A00207A
:1031EC005492000880B582B000AF0023FB71FFF74A
:1031FC00A2FA054A01210120FFF7E0FA00F006F8D7
:10320C0000BF0837BD4680BD6492000880B584B00D
:10321C0000AF0023FB710023FB730123BB60A54BA4
:10322C0000221A70FFF7ECFD83E1FFF784FAA24A43
:10323C0001210120FFF7C2FA0023BB60BB680A2BF7
:10324C0010DDBB68013B9D4A82FB03129210DB1719
:10325C00D31ADBB23033DBB21A460F210120FFF751
:10326C00C3FA04E020220F210120FFF7BDFABB684E
:10327C005A1E924B83FB02139910D317C91A0B4693
:10328C009B000B445B00D11ACBB23033DBB21A4635
:10329C0010210120FFF7A8FABB680F2B02DCFFF707
:1032AC00F9FC0DE0FFF7F6FC824B1B78442B07D0A2
:1032BC00804B1B78412B03D0022000F043FCF1E73C
:1032CC007C4B1B78442B32D07A4B1B78412B18D17A
:1032DC00BB68013B7A4AD35C002B12D0BB68012B34
:1032EC0002DDBB68013BBB60754ABB68134400221E
:1032FC001A70BB68DBB2202219460220FFF774FA61
:10330C0014E06C4B1B78412B98D06A4B19786C4AA3
:10331C00BB6813440A461A70BB68DBB22A221946F2
:10332C000220FFF761FABB680133BB6086E700BF80
:10333C00C82000F007FCFFF7FEF9624A01210120CA
:10334C00FFF73CFA4FF4967000F0FCFB5E495C48CA
:10335C00FCF7F6FE0346002B3FD0FFF7ECF95B4A77
:10336C0001210120FFF72AFA594A01210220FFF717
:10337C0025FAFB7B3133DBB21A460B210220FFF717
:10338C0033FA4FF47A7000F0DDFBFFF7D4F9FB7BD6
:10339C00022B09D04F4A01210120FFF70FFA4E4AA8
:1033AC0001210220FFF70AFAFB7B022B09D14B4AC1
:1033BC0001210120FFF702FA494A01210220FFF7FF
:1033CC00FDF94FF47A7000F0BDFBFB7B0133FB730E
:1033DC000023BB600023FB71ABE0FFF7ACF9414A63
:1033EC0001210120FFF7EAF90023BB60BB680A2B1F
:1033FC0010DDBB68013B314A82FB03129210DB17D4
:10340C00D31ADBB23033DBB21A460F210120FFF79F
:10341C00EBF904E020220F210120FFF7E5F9BB684E
:10342C005A1E264B83FB02139910D317C91A0B464D
:10343C009B000B445B00D11ACBB23033DBB21A4683
:10344C0010210120FFF7D0F9BB680F2B02DCFFF72E
:10345C0021FC0DE0FFF71EFC164B1B78442B07D00C
:10346C00144B1B78412B03D0022000F06BFBF1E7CF
:10347C00104B1B78442B56D00E4B1B78412B33D161
:10348C00BB68013B0E4AD35C002B2DD0BB68002BD4
:10349C0002DDBB68013BBB600B4ABB6813440022D6
:1034AC001A70BB68DBB2202219460220FFF79CF988
:1034BC0038E000BF7E0A00207492000867666666DA
:1034CC00840A00208492000818000020A8910008AB
:1034DC00B8910008C4910008D4910008E09100084C
:1034EC00F091000898920008334B1B78412B3FF465
:1034FC007DAF314B1978314ABB6813440A461A70B8
:10350C002D4B19782E4ABB6813440A461A70BB68B7
:10351C00DBB2294A127819460220FFF765F9BB681D
:10352C000133BB6062E700BFC82000F00BFB09232E
:10353C00FB73FB7B022B7FF678AE0DE0FFF7FBF8FD
:10354C00204A05210120FFF739F91F4A04210220E6
:10355C00FFF734F900BFFDE7FB7B092BEED122E02E
:10356C00FFF7E9F8194A01210120FFF727F9184A5A
:10357C0001210220FFF722F940F2DC5000F0E2FAC0
:10358C00FFF7D9F8134A01210120FFF717F90C4A6C
:10359C0001210220FFF712F94FF4FA6000F0D2FA81
:1035AC00FFF7C9F803E0FB7B092BD9D000BF00BFA4
:1035BC001037BD4680BD00BF7E0A0020840A002063
:1035CC00180000201C92000824920008A892000801
:1035DC00B8920008C892000880B584B000AFF860BB
:1035EC00B9607A60B968F868FDF768F80346002B93
:1035FC0001D0BB6809E07968F868FDF77DF80346EF
:10360C00002B01D07B6800E0FB6818461037BD46E4
:10361C0080BD80B584B000AF786039607B68002BCA
:10362C0002D03B68002B01D1012326E07B683A686D
:10363C001A607B6800229A807B680022DA80002363
:10364C00FB810CE0FA89796813469B0013449B00BC
:10365C000B441A3300221A70FB890133FB81FB895E
:10366C00072BEFD97B681B68184603F07BF90346E0
:10367C00002B01D0012300E0002318461037BD4673
:10368C0080BD000080B586B000AFF860B9603B60CB
:10369C001346FB80FB68002B02D0BB68002B01D1CA
:1036AC00012361E0FB689B88072B01D901235BE0B8
:1036BC00FB689B885A1C91B2FA689180FB82FA8A4B
:1036CC00F96813469B0013449B000B440833BA68FB
:1036DC001A60FA8AF96813469B0013449B000B444A
:1036EC000C33FA881A8022493868FDF705F803462E
:1036FC00002B01D03A6800E01E4AF98AF8680B46A4
:10370C009B000B449B00034410331A601849386A21
:10371C00FCF7F2FF0346002B01D03A6A00E0164A90
:10372C00F98AF8680B469B000B449B000344143346
:10373C001A60FA8AF96813469B0013449B000B44E9
:10374C00183396221A80FA8AF96813469B001344A0
:10375C009B000B441A3301221A70FB880022194675
:10376C00B86801F0FCFA002318461837BD4680BD36
:10377C00CDCCCC3D9A99193F9A99194080B586B019
:10378C0000AFF8600B467A607B81FB68002B04D09D
:10379C00FB689B887A899A4201D3012345E07A8998
:1037AC00F96813469B0013449B000B441A331B7897
:1037BC00002B01D1012338E07A89F96813469B006C
:1037CC0013449B000B44103318687A89F96813462C
:1037DC009B0013449B000B4414331B681A46014690
:1037EC007868FFF7F9FE386112493869FCF7C8FDB3
:1037FC00034611491846FCF777FE03461846FCF7BA
:10380C0085FF0346FB82FB8AB3F5FA6F02D340F2C5
:10381C00CF73FB827A89F96813469B0013449B0093
:10382C000B441833FA8A1A80002318461837BD4601
:10383C0080BD00BF00007A4400002041B0B586B0C6
:10384C0000AFF8600B467A607B81FB68002B04D0DC
:10385C00FB689B887A899A4201D301233DE0214A77
:10386C004FF000017868FFF7B7FE78617A89F96844
:10387C0013469B0013449B000B4410331C681949DE
:10388C007869FCF731FE03461D467A89F9681346C0
:10389C009B0013449B000B44143318687A89F96815
:1038AC0013469B0013449B000B4410331B681946B2
:1038BC00FCF75CFC034619462846FCF761FD034601
:1038CC0019462046FCF754FC03463B617B893A6958
:1038DC001946F868FFF752FF034618461837BD46DD
:1038EC00B0BD00BF0000344380B584B000AF786039
:1038FC007B68002B76D07B68DB88FB81FB89002BF7
:10390C002BD10023BB8123E0BA89796813469B0035
:10391C0013449B000B441A331B78002B15D0BA8927
:10392C00796813469B0013449B000B4408331868BA
:10393C00BA89796813469B0013449B000B440C33E3
:10394C001B880122194601F00AFABB890133BB819D
:10395C007B689B88BA899A42D6D300237B812FE05F
:10396C007A89796813469B0013449B000B441A33E5
:10397C001B78002B21D07A89796813469B0013445D
:10398C009B000B4418331B88FA899A4215D17A890B
:10399C00796813469B0013449B000B44083318684A
:1039AC007A89796813469B0013449B000B440C33B3
:1039BC001B880022194601F0D2F97B8901337B81E7
:1039CC007B689B887A899A42CAD3FB890133FB8135
:1039DC00FB89B3F5FA6F01D30023FB817B68FA896D
:1039EC00DA8000E000BF1037BD4680BD80B582B0E4
:1039FC0000AF78607868FCF7ADFB03469AB24FF4E1
:103A0C007A737968034803F0FFFE00BF0837BD46A0
:103A1C0080BD00BF8802002080B594B000AF7860F4
:103A2C0039601848FFF7E2FF4FF4FA7000F08AF89B
:103A3C001548FFF7DBFF4FF4FA7000F083F807F13D
:103A4C0010037A681149184604F0B6FD07F110030B
:103A5C001846FFF7CBFF4FF4FA7000F073F8386894
:103A6C00FFF7C4FF1A23FB7307F10F014FF47A73AE
:103A7C000122074803F0C8FE002318465037BD4604
:103A8C0080BD00BFA8930008B4930008C49300083D
:103A9C0088020020FDF784FC0B480C490C4A0023DB
:103AAC0002E0D458C4500433C4188C42F9D3094AE8
:103ABC00094C002301E013600432A242FBD304F052
:103ACC000BFEFDF7FBF97047000000208000002082
:103ADC0054950008800000208C0C0020FEE70000AC
:103AEC0080B500AF084B1B68074A43F01003136006
:103AFC00032000F0C1FC0F20FDF736FBFDF702FBA5
:103B0C000023184680BD00BF0020024080B400AFE7
:103B1C00054B1B781A46054B1B681344034A13606C
:103B2C0000BFBD4680BC70472C000020400B00201D
:103B3C0080B400AF024B1B681846BD4680BC704772
:103B4C00400B002080B584B000AF7860FFF7F0FF29
:103B5C00B8607B68FB60FB68B3F1FF3F05D00A4B94
:103B6C001B781A46FB681344FB6000BFFFF7E0FFAD
:103B7C000246BB68D31AFA689A42F7D800BF00BF56
:103B8C001037BD4680BD00BF2C00002080B586B02C
:103B9C0000AF78600023FB7500233B610023BB6002
:103BAC000023FB607B68002B01D10123BEE07B6806
:103BBC009B68002B7B689B6A002B09D17B680022D9
:103BCC00DA627B68002283F824207868FCF796FF81
:103BDC00786800F0FFFA0346FB757B689B6A03F07C
:103BEC001003002B40F09980FB7D002B40F095805A
:103BFC007B689B6A23F4885323F0020343F0020290
:103C0C007B689A627B685A687B68DB691A437B68BD
:103C1C001B7B5B001343BA681343BB607B689B68D8
:103C2C00B3F5807F03D07B689B68012B02D14FF4E6
:103C3C00807300E000233A6913433B617B681B7D72
:103C4C00012B19D17B681B7B002B09D17B689B69ED
:103C5C00013B5A033B69134343F400633B610BE0A4
:103C6C007B689B6A43F020027B689A627B68DB6A04
:103C7C0043F001027B68DA627B681B685B6823F4A3
:103C8C0069417B681B683A690A435A607B681B6808
:103C9C009A68284B13407A681268B9680B43936092
:103CAC007B689B68B3F5807F03D07B689B68012B96
:103CBC0004D17B681B69013B1B05FB607B681B689F
:103CCC00DB6A23F470017B681B68FA680A43DA62CA
:103CDC007B681B689A68184B1340BA689A420BD1E0
:103CEC007B680022DA627B689B6A23F0030343F053
:103CFC0001027B689A6218E07B689B6A23F01203CE
:103D0C0043F010027B689A627B68DB6A43F0010225
:103D1C007B68DA620123FB7507E07B689B6A43F0E2
:103D2C0010027B689A620123FB75FB7D18461837DD
:103D3C00BD4680BDFDF7E1FFFE0E1FFF80B586B0CE
:103D4C0000AFF860B9607A600023FB75FB681B68F4
:103D5C00644A934204D0FB681B68634A934206D1C1
:103D6C00604B5B6803F47023002B40F0B380FB685E
:103D7C0093F82430012B01D10223AEE0FB68012221
:103D8C0083F82420F86800F0CBF90346FB75FB7D23
:103D9C00002B40F09A80FB689B6A23F4706323F03D
:103DAC00010343F48072FB689A62FB681B684E4AFD
:103DBC00934205D14B4B5B6803F47023002B15D158
:103DCC00FB689B6A23F48012FB689A62FB681B6891
:103DDC005B6803F48063002B26D0FB689B6A23F49A
:103DEC00405343F48052FB689A621DE0FB689B6A67
:103DFC0043F48012FB689A62FB681B68394A934251
:103E0C0004D0FB681B68384A93420DD1354B5B6874
:103E1C0003F48063002B07D0FB689B6A23F44053A8
:103E2C0043F48052FB689A62FB689B6A03F48053EC
:103E3C00002B06D0FB68DB6A23F00602FB68DA6213
:103E4C0002E0FB680022DA62FB68002283F824207F
:103E5C00FB681B6A254A9A62FB681B6A244ADA6271
:103E6C00FB681B6A234A1A63FB681B686FF002022B
:103E7C001A60FB681B689A68FB681B6842F48072C6
:103E8C009A60FB68186AFB681B684C331946BA6861
:103E9C007B6800F081FBFB681B689B6803F4602364
:103EAC00B3F5602F08D1FB681B689A68FB681B6828
:103EBC0042F4A0029A600FE0FB681B689A68FB68EA
:103ECC001B6842F480129A6006E0FB68002283F8BB
:103EDC00242001E00123FB75FB7D18461837BD46F5
:103EEC0080BD00BF0024014000280140634200084F
:103EFC00DF420008FB42000880B483B000AF78605A
:103F0C0000BF0C37BD4680BC704780B483B000AF97
:103F1C00786000BF0C37BD4680BC704780B483B05E
:103F2C0000AF786000BF0C37BD4680BC7047000006
:103F3C0080B485B000AF786039600023FB73002338
:103F4C00BB607B6893F82430012B01D10223DCE0A9
:103F5C007B68012283F824203B685B68062B1CD805
:103F6C007B681B68596B3B685A6813469B0013446B
:103F7C00053B1F2202FA03F3DB4319403B68186828
:103F8C003B685A6813469B001344053B00FA03F246
:103F9C007B681B680A435A633CE03B685B680C2BEC
:103FAC001CD87B681B68196B3B685A6813469B00CE
:103FBC001344233B1F2202FA03F3DB4319403B68F3
:103FCC0018683B685A6813469B001344233B00FA5D
:103FDC0003F27B681B680A431A631BE07B681B684F
:103FEC00D96A3B685A6813469B001344413B1F2215
:103FFC0002FA03F3DB4319403B6818683B685A68C4
:10400C0013469B001344413B00FA03F27B681B6888
:10401C000A43DA623B681B68092B1CD97B681B6856
:10402C00D9683B681A6813465B0013441E3B072291
:10403C0002FA03F3DB4319403B6898683B681A6843
:10404C0013465B0013441E3B00FA03F27B681B68AB
:10405C000A43DA6019E07B681B6819693B681A68C7
:10406C0013465B001344072202FA03F3DB431940A7
:10407C003B6898683B681A6813465B00134400FA67
:10408C0003F27B681B680A431A613B681B68102BA0
:10409C0003D03B681B68112B32D17B681B681D4A0F
:1040AC00934225D17B681B689B6803F40003002BAB
:1040BC0026D17B681B689A687B681B6842F40002F7
:1040CC009A603B681B68102B1AD1134B1B68134A60
:1040DC00A2FB03239A0C13469B0013445B00BB60AA
:1040EC0002E0BB68013BBB60BB68002BF9D107E069
:1040FC007B689B6A43F020027B689A620123FB7306
:10410C007B68002283F82420FB7B18461437BD46BD
:10411C0080BC7047002401400000002083DE1B435C
:10412C0080B584B000AF78600023FB600023BB60D7
:10413C007B681B689B6803F00103012B40D07B68F4
:10414C001B689A687B681B6842F001029A601F4BDF
:10415C001B681F4AA2FB03239B0CBB6002E0BB68DD
:10416C00013BBB60BB68002BF9D1FFF7E1FCF860A9
:10417C001FE0FFF7DDFC0246FB68D31A022B18D9AF
:10418C007B681B689B6803F00103012B11D07B68D3
:10419C009B6A43F010027B689A627B68DB6A43F08F
:1041AC0001027B68DA627B68002283F824200123F9
:1041BC0007E07B681B689B6803F00103012BD8D1D7
:1041CC00002318461037BD4680BD00BF00000020FC
:1041DC0083DE1B4380B584B000AF78600023FB60A6
:1041EC007B681B689B6803F00103012B2ED17B6855
:1041FC001B689A687B681B6822F001029A60FFF7C3
:10420C0097FCF8601BE0FFF793FC0246FB68D31A9F
:10421C00022B14D97B681B689B6803F00103012BEC
:10422C000DD17B689B6A43F010027B689A627B68B5
:10423C00DB6A43F001027B68DA62012307E07B68EA
:10424C001B689B6803F00103012BDCD0002318468C
:10425C001037BD4680BD80B584B000AF78607B68F8
:10426C005B6AFB60FB689B6A03F05003002B27D151
:10427C00FB689B6A43F40072FB689A62FB681B68DC
:10428C009B6803F46023B3F5602F15D1FB681B7B8F
:10429C00002B11D1FB689B6A23F48072FB689A6235
:1042AC00FB689B6A03F48053002B05D1FB689B6A67
:1042BC0043F00102FB689A62F868FFF71DFE04E008
:1042CC00FB681B6A1B6B7868984700BF1037BD46AC
:1042DC0080BD80B584B000AF78607B685B6AFB60A2
:1042EC00F868FFF712FE00BF1037BD4680BD80B5E1
:1042FC0084B000AF78607B685B6AFB60FB689B6A8C
:10430C0043F04002FB689A62FB68DB6A43F00402EC
:10431C00FB68DA62F868FFF701FE00BF1037BD4694
:10432C0080BD000080B485B000AF78607B6803F07E
:10433C000703FB600C4BDB68BB60BA684FF6FF03EE
:10434C001340BB60FB681A02BB68134343F0BF63A6
:10435C0043F40033BB60044ABB68D36000BF14371E
:10436C00BD4680BC704700BF00ED00E080B400AFDC
:10437C00044BDB681B0A03F007031846BD4680BCE0
:10438C00704700BF00ED00E080B483B000AF03467F
:10439C00FB7197F90730002B0BDBFB7903F01F0245
:1043AC00064997F907305B09012000FA02F241F83F
:1043BC00232000BF0C37BD4680BC704700E100E0F5
:1043CC0080B483B000AF03463960FB7197F90730B6
:1043DC00002B0ADB3B68DAB20C4997F90730120163
:1043EC00D2B20B4483F800230AE03B68DAB20849E6
:1043FC00FB7903F00F03043B1201D2B20B441A7683
:10440C0000BF0C37BD4680BC704700BF00E100E028
:10441C0000ED00E080B489B000AFF860B9607A605C
:10442C00FB6803F00703FB61FB69C3F10703042B73
:10443C0028BF0423BB61FB690433062B02D9FB693B
:10444C00033B00E000237B614FF0FF32BB6902FAB3
:10445C0003F3DA43BB681A407B699A404FF0FF3193
:10446C007B6901FA03F3D9437B680B40134318466D
:10447C002437BD4680BC704780B582B000AF7860F1
:10448C007868FFF74FFF00BF0837BD4680BD80B589
:10449C0086B000AF0346B9607A60FB7300237B6182
:1044AC00FFF764FF78617A68B9687869FFF7B2FF43
:1044BC00024697F90F3011461846FFF781FF00BFEF
:1044CC001837BD4680BD80B582B000AF0346FB7186
:1044DC0097F907301846FFF757FF00BF0837BD465E
:1044EC0080BD000080B485B000AF78600023FB6015
:1044FC007B68002B01D1012343E07B681B681A46C3
:10450C00224B1344224AA2FB03231B099A007B680B
:10451C001A647B681F4ADA637B68022283F82120C5
:10452C007B681B681B68FB60FB6823F47F5323F0DC
:10453C003003FB607B685A687B689B681A437B6816
:10454C00DB681A437B681B691A437B685B691A43F7
:10455C007B689B691A437B68DB691343FA681343D6
:10456C00FB607B681B68FA681A607B6800229A63A0
:10457C007B68012283F821207B68002283F82020AD
:10458C00002318461437BD4680BC7047F8FFFDBFAA
:10459C00CDCCCCCC0000024080B586B000AFF8602A
:1045AC00B9607A603B600023FB75FB6893F82030A0
:1045BC00012B01D102234BE0FB68012283F8202060
:1045CC00FB6893F82130DBB2012B3AD1FB68022255
:1045DC0083F82120FB6800229A63FB681B681A6829
:1045EC00FB681B6822F001021A603B687A68B968A4
:1045FC00F86800F0EBF9FB68DB6A002B08D0FB686D
:10460C001B681A68FB681B6842F00E021A600FE008
:10461C00FB681B681A68FB681B6822F004021A60AE
:10462C00FB681B681A68FB681B6842F00A021A6078
:10463C00FB681B681A68FB681B6842F001021A6071
:10464C0005E0FB68002283F820200223FB75FB7D2C
:10465C0018461837BD4680BD80B485B000AF786071
:10466C000023FB737B6893F82130DBB2022B08D05C
:10467C007B6804229A637B68002283F82020012344
:10468C0020E07B681B681A687B681B6822F00E02AE
:10469C001A607B681B681A687B681B6822F0010231
:1046AC001A607B681A6C7B68DB6B012101FA02F2E1
:1046BC005A607B68012283F821207B68002283F8F2
:1046CC002020FB7B18461437BD4680BC7047000089
:1046DC0080B584B000AF78600023FB737B6893F8DF
:1046EC002130DBB2022B05D07B6804229A630123B4
:1046FC00FB7351E07B681B681A687B681B6822F0AF
:10470C000E021A607B681B681A687B681B6822F0B3
:10471C0001021A607B681B68224A934229D07B688D
:10472C001B68214A934222D07B681B681F4A934224
:10473C001AD07B681B681E4A934212D07B681B6898
:10474C001C4A93420AD07B681B681B4A934202D1D5
:10475C004FF480130EE04FF080730BE04FF4803376
:10476C0008E04FF4805305E04FF4807302E010230F
:10477C0000E00123114A53607B68012283F8212059
:10478C007B68002283F820207B685B6B002B03D0B6
:10479C007B685B6B78689847FB7B18461037BD4687
:1047AC0080BD00BF080002401C00024030000240E7
:1047BC0044000240580002406C00024000000240DD
:1047CC0080B584B000AF78607B68DB6B1B68FB60E6
:1047DC007B681B681B68BB607B681B6C04229A405F
:1047EC00FB681340002B4FD0BB6803F00403002B75
:1047FC004AD07B681B681B6803F02003002B07D191
:10480C007B681B681A687B681B6822F004021A60BC
:10481C007B681B68664A934229D07B681B68654A93
:10482C00934222D07B681B68634A93421AD07B6800
:10483C001B68624A934212D07B681B68604A9342A1
:10484C000AD07B681B685F4A934202D14FF4800305
:10485C000EE04FF080630BE04FF4802308E04FF440
:10486C00804305E04FF4806302E0402300E0042322
:10487C00554A53607B68DB6A002B00F094807B68A0
:10488C00DB6A786898478EE07B681B6C02229A4042
:10489C00FB681340002B56D0BB6803F00203002BBF
:1048AC0051D07B681B681B6803F02003002B0BD1D5
:1048BC007B681B681A687B681B6822F00A021A6006
:1048CC007B68012283F821207B681B68384A93425D
:1048DC0029D07B681B68374A934222D07B681B68BF
:1048EC00354A93421AD07B681B68344A934212D0E3
:1048FC007B681B68324A93420AD07B681B68314A3A
:10490C00934202D14FF400130EE04FF000730BE012
:10491C004FF4003308E04FF4005305E04FF40073FC
:10492C0002E0202300E00223274A53607B68002228
:10493C0083F820207B689B6A002B34D07B689B6AB1
:10494C00786898472FE07B681B6C08229A40FB68BC
:10495C001340002B28D0BB6803F00803002B23D096
:10496C007B681B681A687B681B6822F00E021A6051
:10497C007B681A6C7B68DB6B012101FA02F25A60CE
:10498C007B6801229A637B68012283F821207B6873
:10499C00002283F820207B681B6B002B04D07B68E3
:1049AC001B6B7868984700BF00BF1037BD4680BDB1
:1049BC00080002401C00024030000240440002404B
:1049CC00580002406C0002400000024080B485B0E8
:1049DC0000AFF860B9607A603B60FB681A6CFB68EA
:1049EC00DB6B012101FA02F25A60FB681B683A6822
:1049FC005A60FB685B68102B08D1FB681B687A68EF
:104A0C009A60FB681B68BA68DA6007E0FB681B6891
:104A1C00BA689A60FB681B687A68DA6000BF143762
:104A2C00BD4680BC7047000080B48BB000AF78608E
:104A3C00396000237B6200233B6269E101227B6ABF
:104A4C0002FA03F3FB613B681B68FA691340BB6114
:104A5C00BA69FB699A4240F058813B685B689A4A94
:104A6C0093425ED0984A934275D8984A934258D054
:104A7C00964A93426FD8964A934252D0944A9342A4
:104A8C0069D8944A93424CD0924A934263D8924A42
:104A9C00934246D0904A93425DD8122B2AD8122BBF
:104AAC0059D801A252F823F02F4B0008094B0008EB
:104ABC001B4B00085D4B0008634B0008634B000860
:104ACC00634B0008634B0008634B0008634B000802
:104ADC00634B0008634B0008634B0008634B0008F2
:104AEC00634B0008634B0008634B0008114B000834
:104AFC00254B0008794A934213D02CE03B68DB68C5
:104B0C003B6229E03B68DB6804333B6224E03B6892
:104B1C00DB6808333B621FE03B68DB680C333B62AD
:104B2C001AE03B689B68002B02D104233B6213E024
:104B3C003B689B68012B05D108233B627B68FA69B3
:104B4C001A6109E008233B627B68FA695A6103E049
:104B5C0000233B6200E000BFBB69FF2B01D87B68E0
:104B6C0001E07B6804337B61BB69FF2B02D87B6A55
:104B7C009B0002E07B6A083B9B003B617B691A68E7
:104B8C000F213B6901FA03F3DB431A40396A3B6995
:104B9C0001FA03F31A437B691A603B685B6803F004
:104BAC008053002B00F0B1804D4B9B694C4A43F075
:104BBC00010393614A4B9B6903F00103BB60BB6823
:104BCC00484A7B6A9B08023352F82330FB607B6AAD
:104BDC0003F003039B000F2202FA03F3DB43FA6892
:104BEC001340FB607B68404A934213D07B683F4A7A
:104BFC0093420DD07B683E4A934207D07B683D4A76
:104C0C00934201D1032306E0042304E0022302E0D3
:104C1C00012300E000237A6A02F003029200934021
:104C2C00FA681343FB602F497B6A9B080233FA68CE
:104C3C0041F823203B685B6803F48013002B06D0FB
:104C4C002D4B9A682C49BB6913438B6006E02A4BA9
:104C5C009A68BB69DB43284913408B603B685B68EF
:104C6C0003F40013002B06D0234BDA682249BB69EE
:104C7C001343CB6006E0204BDA68BB69DB431E496B
:104C8C001340CB603B685B6803F40033002B06D009
:104C9C00194B5A681849BB6913434B6006E0164B15
:104CAC005A68BB69DB43144913404B603B685B6833
:104CBC0003F48033002B21D00F4B1A680E49BB69CB
:104CCC0013430B6021E000BF0000321000003110D4
:104CDC000000221000002110000012100000111022
:104CEC00001002400000014000080140000C01408F
:104CFC000010014000140140000401400B4B1A68E5
:104D0C00BB69DB43094913400B607B6A01337B624F
:104D1C003B681A687B6A22FA03F3002B7FF48EAE91
:104D2C0000BF00BF2C37BD4680BC7047000401405B
:104D3C0080B485B000AF78600B467B807B689A6846
:104D4C007B881340002B02D00123FB7301E000236E
:104D5C00FB73FB7B18461437BD4680BC704780B490
:104D6C0083B000AF78600B467B8013467B707B78FA
:104D7C00002B03D07A887B681A6103E07B881A04C5
:104D8C007B681A6100BF0C37BD4680BC70470000C1
:104D9C0080B584B000AF78607B68002B01D1012313
:104DAC002BE17B6893F83D30DBB2002B06D17B689E
:104DBC00002283F83C207868FCF728F87B682422D2
:104DCC0083F83D207B681B681A687B681B6822F09F
:104DDC0001021A607B681B681A687B681B6842F4C6
:104DEC0000421A607B681B681A687B681B6822F497
:104DFC0000421A6001F0CAFBF8607B685B68814A6C
:104E0C00934207D8FB68804A934294BF0123002346
:104E1C00DBB206E0FB687D4A934294BF012300237A
:104E2C00DBB2002B01D00123E7E0FB68784AA2FB40
:104E3C0003239B0CBB607B681B685B6823F03F0102
:104E4C007B681B68BA680A435A607B681B681B6ADC
:104E5C0023F03F017B685B686A4A934202D8BB68C7
:104E6C00013309E0BB684FF4967202FB03F3694A05
:104E7C00A2FB03239B0901337A6812680B4313626C
:104E8C007B681B68DB6923F44F4222F0FF027B68CE
:104E9C005B685C498B4219D8FB68591E7B685B6860
:104EAC005B00B1FBF3F3591C40F6FC730B40002B79
:104EBC000AD0FB68591E7B685B685B00B1FBF3F39F
:104ECC000133C3F30B0351E004234FE07B689B6871
:104EDC00002B11D1FB68581E7B6859680B465B0090
:104EEC000B44B0FBF3F30133C3F30B03002B0CBFE8
:104EFC0001230023DBB212E0FB68581E7B68596863
:104F0C000B469B000B4499000B44B0FBF3F30133AD
:104F1C00C3F30B03002B0CBF01230023DBB2002BCC
:104F2C0001D0012322E07B689B68002B0ED1FB682B
:104F3C00581E7B6859680B465B000B44B0FBF3F3BF
:104F4C000133C3F30B0343F400430FE0FB68581E1B
:104F5C007B6859680B469B000B4499000B44B0FBD3
:104F6C00F3F30133C3F30B0343F44043796809684B
:104F7C001343CB617B681B681B6823F0C0017B6803
:104F8C00DA697B681B6A1A437B681B680A431A60E0
:104F9C007B681B689B6823F4034323F0FF037A6848
:104FAC0011697A68D26811437A6812680B4393606E
:104FBC007B681B68DB6823F0FF017B685A697B68A0
:104FCC009B691A437B681B680A43DA607B681B6821
:104FDC001A687B681B6842F001021A607B68002229
:104FEC001A647B68202283F83D207B6800221A63B8
:104FFC007B68002283F83E20002318461037BD46FC
:10500C0080BD00BFA08601007F841E00FF083D000C
:10501C0083DE1B43D34D621080B588B002AFF860BD
:10502C007A601A460B467B8113463B81FEF780FD66
:10503C007861FB6893F83D30DBB2202B40F0E080C8
:10504C007B690093192301227049F86800F09EFCDB
:10505C000346002B01D00223D3E0FB6893F83C30CD
:10506C00012B01D10223CCE0FB68012283F83C2008
:10507C00FB681B681B6803F00103012B07D0FB685E
:10508C001B681A68FB681B6842F001021A60FB6817
:10509C001B681A68FB681B6822F400621A60FB68C4
:1050AC00212283F83D20FB68102283F83E20FB6808
:1050BC0000221A64FB687A685A62FB683A895A853E
:1050CC00FB685B8D9AB2FB681A85FB68504ADA6202
:1050DC0079897B693A6AF86800F008FB0346002B73
:1050EC0001D001238DE000233B61FB681B685B69E9
:1050FC003B61FB681B689B693B613B6966E07A69B5
:10510C00396AF86800F05CFD0346002B0DD0FB6893
:10511C001B6C042B07D1FB681B681A68FB681B68A7
:10512C0042F400721A6001236BE0FB685B6A1A7828
:10513C00FB681B681A61FB685B6A5A1CFB685A6245
:10514C00FB685B8D9BB2013B9AB2FB685A85FB688E
:10515C001B8D013B9AB2FB681A85FB681B685B6967
:10516C0003F00403042B1BD1FB681B8D002B17D001
:10517C00FB685B6A1A78FB681B681A61FB685B6AE0
:10518C005A1CFB685A62FB685B8D9BB2013B9AB25E
:10519C00FB685A85FB681B8D013B9AB2FB681A852C
:1051AC007A69396AF86800F053FD0346002B0DD07C
:1051BC00FB681B6C042B07D1FB681B681A68FB6827
:1051CC001B6842F400721A6001231AE0FB681B8D05
:1051DC00002B94D1FB681B681A68FB681B6842F4AF
:1051EC0000721A60FB68202283F83D20FB680022C5
:1051FC0083F83E20FB68002283F83C20002300E06B
:10520C00022318461837BD4680BD00BF02001000AF
:10521C000000FFFF80B58CB002AFF8607A601A46D0
:10522C000B467B8113463B8100233B62FEF780FCDF
:10523C007862FB6893F83D30DBB2202B40F04B8258
:10524C007B6A0093192301227F49F86800F09EFBCA
:10525C000346002B01D002233EE2FB6893F83C305E
:10526C00012B01D1022337E2FB68012283F83C2099
:10527C00FB681B681B6803F00103012B07D0FB685C
:10528C001B681A68FB681B6842F001021A60FB6815
:10529C001B681A68FB681B6822F400621A60FB68C2
:1052AC00222283F83D20FB68102283F83E20FB6805
:1052BC0000221A64FB687A685A62FB683A895A853C
:1052CC00FB685B8D9AB2FB681A85FB685F4ADA62F1
:1052DC0079897B6A3A6BF86800F08AFA0346002BEE
:1052EC0001D00123F8E1FB681B8D002B13D10023A7
:1052FC00FB61FB681B685B69FB61FB681B689B6956
:10530C00FB61FB69FB681B681A68FB681B6842F44D
:10531C0000721A60CCE1FB681B8D012B1ED1FB685F
:10532C001B681A68FB681B6822F480621A6072B6EC
:10533C0000BF0023BB61FB681B685B69BB61FB683A
:10534C001B689B69BB61BB69FB681B681A68FB68BF
:10535C001B6842F400721A6062B635E0FB681B8D64
:10536C00022B1ED1FB681B681A68FB681B6842F491
:10537C0000621A6072B600BF00237B61FB681B6879
:10538C005B697B61FB681B689B697B617B69FB6864
:10539C001B681A68FB681B6822F480621A6062B68C
:1053AC0012E0FB681B681A68FB681B6842F4806299
:1053BC001A6000233B61FB681B685B693B61FB68FF
:1053CC001B689B693B613B6972E1FB681B8D032B7E
:1053DC0000F21F81FB681B8D012B23D17A6A396B7C
:1053EC00F86800F07DFC0346002B01D0012373E12B
:1053FC00FB681B681A69FB685B6AD2B21A70FB689F
:10540C005B6A5A1CFB685A62FB681B8D013B9AB2A3
:10541C00FB681A85FB685B8D9BB2013B9AB2FB68FB
:10542C005A8545E1FB681B8D022B52D17B6A009398
:10543C003B6B00220649F86800F0A8FA0346002BE3
:10544C0008D0012348E100BF020010000000FFFF5C
:10545C000400010072B600BFFB681B681A68FB6889
:10546C001B6842F400721A60FB681B681A69FB68BF
:10547C005B6AD2B21A70FB685B6A5A1CFB685A6290
:10548C00FB681B8D013B9AB2FB681A85FB685B8D30
:10549C009BB2013B9AB2FB685A8562B600BFFB68AF
:1054AC001B681A69FB685B6AD2B21A70FB685B6A8C
:1054BC005A1CFB685A62FB681B8D013B9AB2FB6855
:1054CC001A85FB685B8D9BB2013B9AB2FB685A85CF
:1054DC00EEE07B6A00933B6B00228149F86800F098
:1054EC0055FA0346002B01D00123F5E0FB681B683D
:1054FC001A68FB681B6822F480621A6072B600BFDF
:10550C00FB681B681A69FB685B6AD2B21A70FB688D
:10551C005B6A5A1CFB685A62FB681B8D013B9AB292
:10552C00FB681A85FB685B8D9BB2013B9AB2FB68EA
:10553C005A856C4B1B68DB086B4AA2FB03231A0AC7
:10554C0013469B001344DA00D31A3B623B6A013BBF
:10555C003B623B6A002B18D1FB6800221A63FB6884
:10556C00202283F83D20FB68002283F83E20FB6854
:10557C001B6C43F02002FB681A6462B600BFFB6828
:10558C00002283F83C200123A6E0FB681B685B69C2
:10559C0003F00403042BD9D1FB681B681A68FB6861
:1055AC001B6842F400721A60FB681B681A69FB687E
:1055BC005B6AD2B21A70FB685B6A5A1CFB685A624F
:1055CC00FB681B8D013B9AB2FB681A85FB685B8DEF
:1055DC009BB2013B9AB2FB685A8562B600BFFB686E
:1055EC001B681A69FB685B6AD2B21A70FB685B6A4B
:1055FC005A1CFB685A62FB681B8D013B9AB2FB6814
:10560C001A85FB685B8D9BB2013B9AB2FB685A858D
:10561C004EE07A6A396BF86800F062FB0346002BA7
:10562C0001D0012358E0FB681B681A69FB685B6AB0
:10563C00D2B21A70FB685B6A5A1CFB685A62FB6830
:10564C001B8D013B9AB2FB681A85FB685B8D9BB284
:10565C00013B9AB2FB685A85FB681B685B6903F0D7
:10566C000403042B24D1FB681B8D032B07D1FB688F
:10567C001B681A68FB681B6822F480621A60FB685E
:10568C001B681A69FB685B6AD2B21A70FB685B6AAA
:10569C005A1CFB685A62FB681B8D013B9AB2FB6873
:1056AC001A85FB685B8D9BB2013B9AB2FB685A85ED
:1056BC00FB681B8D002B7FF488AEFB68202283F8DF
:1056CC003D20FB68002283F83E20FB68002283F813
:1056DC003C20002300E0022318462837BD4680BD3D
:1056EC00040001000000002089B5F81480B588B0D2
:1056FC0002AFF8607A603B600B467B81FB68DB6A2B
:10570C007B617B69082B06D07B69012B03D07B69FD
:10571C0013F5803F08D1FB681B681A68FB681B688F
:10572C0042F480721A600BE0FB681B6B122B07D1E2
:10573C00FB681B681A68FB681B6842F480721A606D
:10574C003B6800937B6800224FF00111F86800F071
:10575C001DF90346002B0DD0FB681B681B6803F476
:10576C008073B3F5807F03D1FB684FF400721A6429
:10577C00032335E0FB681B69B3F5804F08D17B89A7
:10578C00DBB21A46FB681B6802F0FE021A611BE0D2
:10579C007B89DB11DBB203F00603DBB263F00F0392
:1057AC00DAB2FB681B681A613B687A680E49F868C4
:1057BC0000F066F90346002B01D0012310E07B8931
:1057CC00DAB2FB681B681A613B687A680749F868AB
:1057DC0000F056F90346002B01D0012300E0002312
:1057EC0018461837BD4680BD0800010002000100B4
:1057FC0080B588B002AFF8607A603B600B467B8165
:10580C00FB68DB6A7B61FB681B681A68FB681B68BA
:10581C0042F480621A607B69082B06D07B69012BED
:10582C0003D07B6913F5803F08D1FB681B681A68AD
:10583C00FB681B6842F480721A600BE0FB681B6B00
:10584C00112B07D1FB681B681A68FB681B6842F4B4
:10585C0080721A603B6800937B6800224FF0011144
:10586C00F86800F093F80346002B0DD0FB681B681A
:10587C001B6803F48073B3F5807F03D1FB684FF48E
:10588C0000721A64032379E0FB681B69B3F5804F3F
:10589C0008D17B89DBB243F00103DAB2FB681B68E9
:1058AC001A615FE07B89DB11DBB203F00603DBB22C
:1058BC0063F00F03DAB2FB681B681A613B687A6805
:1058CC003049F86800F0DCF80346002B01D00123C6
:1058DC0054E07B89DAB2FB681B681A613B687A6812
:1058EC002949F86800F0CCF80346002B01D00123BD
:1058FC0044E000233B61FB681B685B693B61FB6810
:10590C001B689B693B613B69FB681B681A68FB68F9
:10591C001B6842F480721A603B6800937B6800221B
:10592C004FF00111F86800F031F80346002B0DD050
:10593C00FB681B681B6803F48073B3F5807F03D18D
:10594C00FB684FF400721A64032317E07B89DB11A8
:10595C00DBB203F00603DBB263F00E03DAB2FB68D2
:10596C001B681A613B687A680749F86800F088F888
:10597C000346002B01D0012300E000231846183702
:10598C00BD4680BD080001000200010080B584B056
:10599C0000AFF860B9603B601346FB7148E03B68B0
:1059AC00B3F1FF3F44D0FEF7C3F80246BB69D31AEC
:1059BC003A689A4202D33B68002B39D1BB681B0C66
:1059CC00DBB2012B0DD1FB681B685B69DA43BB684A
:1059DC0013409BB2002B0CBF01230023DBB21A46F1
:1059EC000CE0FB681B689B69DA43BB6813409BB2F5
:1059FC00002B0CBF01230023DBB21A46FB799A4221
:105A0C0016D1FB6800221A63FB68202283F83D2024
:105A1C00FB68002283F83E20FB681B6C43F02002DD
:105A2C00FB681A64FB68002283F83C20012323E006
:105A3C00BB681B0CDBB2012B0DD1FB681B685B69CF
:105A4C00DA43BB6813409BB2002B0CBF012300232D
:105A5C00DBB21A460CE0FB681B689B69DA43BB6837
:105A6C0013409BB2002B0CBF01230023DBB21A4660
:105A7C00FB799A4293D0002318461037BD4680BD5F
:105A8C0080B584B000AFF860B9607A603B6071E0BB
:105A9C00FB681B685B6903F48063B3F5806F23D1EB
:105AAC00FB681B681A68FB681B6842F400721A607A
:105ABC00FB681B686FF480625A61FB6800221A63F2
:105ACC00FB68202283F83D20FB68002283F83E20EF
